{"bytecode":"608060405234801561001057600080fd5b50600380546001600160a01b03191633179055604080518082018252601081526f11195d9859185cc81059d9d85c9dd85b60821b6020808301919091528251808401909352601683527f426861726174697961204a616e617461205061727479000000000000000000009083015261008791610288565b6100f16040518060400160405280600d81526020016c14185b1b185d8814185b991a5d609a1b8152506040518060400160405280601881526020017f496e6469616e204e6174696f6e616c20436f6e6772657373000000000000000081525061028860201b60201c565b61015c6040518060400160405280600e81526020016d486172697368204b687572616e6160901b8152506040518060400160405280601a81526020017f4e6174696f6e616c69737420436f6e677265737320506172747900000000000081525061028860201b60201c565b6101c86040518060400160405280600f81526020016e14d85c9a5d1848111a185b1a5dd85b608a1b8152506040518060400160405280601481526020017f526173687472697961204a616e6174612044616c00000000000000000000000081525061028860201b60201c565b61022e6040518060400160405280600981526020016812985a4811dbde585b60ba1b8152506040518060400160405280601381526020017f426168756a616e2053616d616a2050617274790000000000000000000000000081525061028860201b60201c565b610283604051806040016040528060048152602001634e4f544160e01b815250604051806040016040528060118152602001704e6f6e65204f66205468652041626f766560781b81525061028860201b60201c565b610418565b60028054906000610298836103b4565b90915550506040805160808101825260025480825260208083018681528385018690526000606085018190529283526001808352949092208351815591518051939492936102ed93850192919091019061031b565b506040820151805161030991600284019160209091019061031b565b50606082015181600301559050505050565b828054610327906103dd565b90600052602060002090601f016020900481019282610349576000855561038f565b82601f1061036257805160ff191683800117855561038f565b8280016001018555821561038f579182015b8281111561038f578251825591602001919060010190610374565b5061039b92915061039f565b5090565b5b8082111561039b57600081556001016103a0565b60006000198214156103d657634e487b7160e01b600052601160045260246000fd5b5060010190565b600181811c908216806103f157607f821691505b6020821081141561041257634e487b7160e01b600052602260045260246000fd5b50919050565b61055d806104276000396000f3fe608060405234801561001057600080fd5b50600436106100625760003560e01c8063290e9212146100675780634c7265541461009357806391b94a7e146100aa578063a3ec138d146100bf578063dcd6a5cd146100f2578063f851a44014610107575b600080fd5b61007a61007536600461037c565b610132565b60405161008a94939291906103e2565b60405180910390f35b61009c60025481565b60405190815260200161008a565b6100b261026a565b60405161008a919061041f565b6100e26100cd366004610463565b60006020819052908152604090205460ff1681565b604051901515815260200161008a565b61010561010036600461037c565b610307565b005b60035461011a906001600160a01b031681565b6040516001600160a01b03909116815260200161008a565b60016020819052600091825260409091208054918101805461015390610493565b80601f016020809104026020016040519081016040528092919081815260200182805461017f90610493565b80156101cc5780601f106101a1576101008083540402835291602001916101cc565b820191906000526020600020905b8154815290600101906020018083116101af57829003601f168201915b5050505050908060020180546101e190610493565b80601f016020809104026020016040519081016040528092919081815260200182805461020d90610493565b801561025a5780601f1061022f5761010080835404028352916020019161025a565b820191906000526020600020905b81548152906001019060200180831161023d57829003601f168201915b5050505050908060030154905084565b6003546060906001600160a01b0316331461028457600080fd5b60408051600680825260e082019092526000916020820160c08036833701905050905060005b6005811161030157600160006102c083836104de565b8152602001908152602001600020600301548282815181106102e4576102e46104f6565b6020908102919091010152806102f98161050c565b9150506102aa565b50919050565b3360009081526020819052604090205460ff161561032457600080fd5b60008111801561033657506002548111155b61033f57600080fd5b33600090815260208181526040808320805460ff1916600190811790915584845290915281206003018054916103748361050c565b919050555050565b60006020828403121561038e57600080fd5b5035919050565b6000815180845260005b818110156103bb5760208185018101518683018201520161039f565b818111156103cd576000602083870101525b50601f01601f19169290920160200192915050565b8481526080602082015260006103fb6080830186610395565b828103604084015261040d8186610395565b91505082606083015295945050505050565b6020808252825182820181905260009190848201906040850190845b818110156104575783518352928401929184019160010161043b565b50909695505050505050565b60006020828403121561047557600080fd5b81356001600160a01b038116811461048c57600080fd5b9392505050565b600181811c908216806104a757607f821691505b6020821081141561030157634e487b7160e01b600052602260045260246000fd5b634e487b7160e01b600052601160045260246000fd5b600082198211156104f1576104f16104c8565b500190565b634e487b7160e01b600052603260045260246000fd5b6000600019821415610520576105206104c8565b506001019056fea264697066735822122015293da46cbc48c09e23f82d36c50806d2e63ef395ed150c6809ebfd6f35ccee64736f6c634300080b0033","bytecodeSha1":"11e990d1f94383d93d9994abe2c17e83747bf070","type":"contract","abi":[{"inputs":[],"stateMutability":"nonpayable","type":"constructor","name":"constructor"},{"inputs":[],"name":"Candidate_count","outputs":[{"internalType":"uint256","name":"","type":"uint256"}],"stateMutability":"view","type":"function"},{"inputs":[{"internalType":"uint256","name":"","type":"uint256"}],"name":"Candidates","outputs":[{"internalType":"uint256","name":"id","type":"uint256"},{"internalType":"string","name":"name","type":"string"},{"internalType":"string","name":"party","type":"string"},{"internalType":"uint256","name":"vote_count","type":"uint256"}],"stateMutability":"view","type":"function"},{"inputs":[{"internalType":"uint256","name":"_candidateId","type":"uint256"}],"name":"Vote","outputs":[],"stateMutability":"nonpayable","type":"function"},{"inputs":[],"name":"admin","outputs":[{"internalType":"address","name":"","type":"address"}],"stateMutability":"view","type":"function"},{"inputs":[],"name":"viewvotes","outputs":[{"internalType":"uint256[]","name":"","type":"uint256[]"}],"stateMutability":"view","type":"function"},{"inputs":[{"internalType":"address","name":"","type":"address"}],"name":"voters","outputs":[{"internalType":"bool","name":"","type":"bool"}],"stateMutability":"view","type":"function"}],"compiler":{"version":"0.8.11+commit.d7f03943","evm_version":"istanbul","optimizer":{"enabled":true,"runs":200}},"contractName":"Election","language":"Solidity","natspec":{"methods":{},"kind":"dev","version":1},"opcodes":"PUSH1 0x80 PUSH1 0x40 MSTORE CALLVALUE DUP1 ISZERO PUSH2 0x10 JUMPI PUSH1 0x0 DUP1 REVERT JUMPDEST POP PUSH1 0x4 CALLDATASIZE LT PUSH2 0x62 JUMPI PUSH1 0x0 CALLDATALOAD PUSH1 0xE0 SHR DUP1 PUSH4 0x290E9212 EQ PUSH2 0x67 JUMPI DUP1 PUSH4 0x4C726554 EQ PUSH2 0x93 JUMPI DUP1 PUSH4 0x91B94A7E EQ PUSH2 0xAA JUMPI DUP1 PUSH4 0xA3EC138D EQ PUSH2 0xBF JUMPI DUP1 PUSH4 0xDCD6A5CD EQ PUSH2 0xF2 JUMPI DUP1 PUSH4 0xF851A440 EQ PUSH2 0x107 JUMPI JUMPDEST PUSH1 0x0 DUP1 REVERT JUMPDEST PUSH2 0x7A PUSH2 0x75 CALLDATASIZE PUSH1 0x4 PUSH2 0x37C JUMP JUMPDEST PUSH2 0x132 JUMP JUMPDEST PUSH1 0x40 MLOAD PUSH2 0x8A SWAP5 SWAP4 SWAP3 SWAP2 SWAP1 PUSH2 0x3E2 JUMP JUMPDEST PUSH1 0x40 MLOAD DUP1 SWAP2 SUB SWAP1 RETURN JUMPDEST PUSH2 0x9C PUSH1 0x2 SLOAD DUP2 JUMP JUMPDEST PUSH1 0x40 MLOAD SWAP1 DUP2 MSTORE PUSH1 0x20 ADD PUSH2 0x8A JUMP JUMPDEST PUSH2 0xB2 PUSH2 0x26A JUMP JUMPDEST PUSH1 0x40 MLOAD PUSH2 0x8A SWAP2 SWAP1 PUSH2 0x41F JUMP JUMPDEST PUSH2 0xE2 PUSH2 0xCD CALLDATASIZE PUSH1 0x4 PUSH2 0x463 JUMP JUMPDEST PUSH1 0x0 PUSH1 0x20 DUP2 SWAP1 MSTORE SWAP1 DUP2 MSTORE PUSH1 0x40 SWAP1 KECCAK256 SLOAD PUSH1 0xFF AND DUP2 JUMP JUMPDEST PUSH1 0x40 MLOAD SWAP1 ISZERO ISZERO DUP2 MSTORE PUSH1 0x20 ADD PUSH2 0x8A JUMP JUMPDEST PUSH2 0x105 PUSH2 0x100 CALLDATASIZE PUSH1 0x4 PUSH2 0x37C JUMP JUMPDEST PUSH2 0x307 JUMP JUMPDEST STOP JUMPDEST PUSH1 0x3 SLOAD PUSH2 0x11A SWAP1 PUSH1 0x1 PUSH1 0x1 PUSH1 0xA0 SHL SUB AND DUP2 JUMP JUMPDEST PUSH1 0x40 MLOAD PUSH1 0x1 PUSH1 0x1 PUSH1 0xA0 SHL SUB SWAP1 SWAP2 AND DUP2 MSTORE PUSH1 0x20 ADD PUSH2 0x8A JUMP JUMPDEST PUSH1 0x1 PUSH1 0x20 DUP2 SWAP1 MSTORE PUSH1 0x0 SWAP2 DUP3 MSTORE PUSH1 0x40 SWAP1 SWAP2 KECCAK256 DUP1 SLOAD SWAP2 DUP2 ADD DUP1 SLOAD PUSH2 0x153 SWAP1 PUSH2 0x493 JUMP JUMPDEST DUP1 PUSH1 0x1F ADD PUSH1 0x20 DUP1 SWAP2 DIV MUL PUSH1 0x20 ADD PUSH1 0x40 MLOAD SWAP1 DUP2 ADD PUSH1 0x40 MSTORE DUP1 SWAP3 SWAP2 SWAP1 DUP2 DUP2 MSTORE PUSH1 0x20 ADD DUP3 DUP1 SLOAD PUSH2 0x17F SWAP1 PUSH2 0x493 JUMP JUMPDEST DUP1 ISZERO PUSH2 0x1CC JUMPI DUP1 PUSH1 0x1F LT PUSH2 0x1A1 JUMPI PUSH2 0x100 DUP1 DUP4 SLOAD DIV MUL DUP4 MSTORE SWAP2 PUSH1 0x20 ADD SWAP2 PUSH2 0x1CC JUMP JUMPDEST DUP3 ADD SWAP2 SWAP1 PUSH1 0x0 MSTORE PUSH1 0x20 PUSH1 0x0 KECCAK256 SWAP1 JUMPDEST DUP2 SLOAD DUP2 MSTORE SWAP1 PUSH1 0x1 ADD SWAP1 PUSH1 0x20 ADD DUP1 DUP4 GT PUSH2 0x1AF JUMPI DUP3 SWAP1 SUB PUSH1 0x1F AND DUP3 ADD SWAP2 JUMPDEST POP POP POP POP POP SWAP1 DUP1 PUSH1 0x2 ADD DUP1 SLOAD PUSH2 0x1E1 SWAP1 PUSH2 0x493 JUMP JUMPDEST DUP1 PUSH1 0x1F ADD PUSH1 0x20 DUP1 SWAP2 DIV MUL PUSH1 0x20 ADD PUSH1 0x40 MLOAD SWAP1 DUP2 ADD PUSH1 0x40 MSTORE DUP1 SWAP3 SWAP2 SWAP1 DUP2 DUP2 MSTORE PUSH1 0x20 ADD DUP3 DUP1 SLOAD PUSH2 0x20D SWAP1 PUSH2 0x493 JUMP JUMPDEST DUP1 ISZERO PUSH2 0x25A JUMPI DUP1 PUSH1 0x1F LT PUSH2 0x22F JUMPI PUSH2 0x100 DUP1 DUP4 SLOAD DIV MUL DUP4 MSTORE SWAP2 PUSH1 0x20 ADD SWAP2 PUSH2 0x25A JUMP JUMPDEST DUP3 ADD SWAP2 SWAP1 PUSH1 0x0 MSTORE PUSH1 0x20 PUSH1 0x0 KECCAK256 SWAP1 JUMPDEST DUP2 SLOAD DUP2 MSTORE SWAP1 PUSH1 0x1 ADD SWAP1 PUSH1 0x20 ADD DUP1 DUP4 GT PUSH2 0x23D JUMPI DUP3 SWAP1 SUB PUSH1 0x1F AND DUP3 ADD SWAP2 JUMPDEST POP POP POP POP POP SWAP1 DUP1 PUSH1 0x3 ADD SLOAD SWAP1 POP DUP5 JUMP JUMPDEST PUSH1 0x3 SLOAD PUSH1 0x60 SWAP1 PUSH1 0x1 PUSH1 0x1 PUSH1 0xA0 SHL SUB AND CALLER EQ PUSH2 0x284 JUMPI PUSH1 0x0 DUP1 REVERT JUMPDEST PUSH1 0x40 DUP1 MLOAD PUSH1 0x6 DUP1 DUP3 MSTORE PUSH1 0xE0 DUP3 ADD SWAP1 SWAP3 MSTORE PUSH1 0x0 SWAP2 PUSH1 0x20 DUP3 ADD PUSH1 0xC0 DUP1 CALLDATASIZE DUP4 CALLDATACOPY ADD SWAP1 POP POP SWAP1 POP PUSH1 0x0 JUMPDEST PUSH1 0x5 DUP2 GT PUSH2 0x301 JUMPI PUSH1 0x1 PUSH1 0x0 PUSH2 0x2C0 DUP4 DUP4 PUSH2 0x4DE JUMP JUMPDEST DUP2 MSTORE PUSH1 0x20 ADD SWAP1 DUP2 MSTORE PUSH1 0x20 ADD PUSH1 0x0 KECCAK256 PUSH1 0x3 ADD SLOAD DUP3 DUP3 DUP2 MLOAD DUP2 LT PUSH2 0x2E4 JUMPI PUSH2 0x2E4 PUSH2 0x4F6 JUMP JUMPDEST PUSH1 0x20 SWAP1 DUP2 MUL SWAP2 SWAP1 SWAP2 ADD ADD MSTORE DUP1 PUSH2 0x2F9 DUP2 PUSH2 0x50C JUMP JUMPDEST SWAP2 POP POP PUSH2 0x2AA JUMP JUMPDEST POP SWAP2 SWAP1 POP JUMP JUMPDEST CALLER PUSH1 0x0 SWAP1 DUP2 MSTORE PUSH1 0x20 DUP2 SWAP1 MSTORE PUSH1 0x40 SWAP1 KECCAK256 SLOAD PUSH1 0xFF AND ISZERO PUSH2 0x324 JUMPI PUSH1 0x0 DUP1 REVERT JUMPDEST PUSH1 0x0 DUP2 GT DUP1 ISZERO PUSH2 0x336 JUMPI POP PUSH1 0x2 SLOAD DUP2 GT ISZERO JUMPDEST PUSH2 0x33F JUMPI PUSH1 0x0 DUP1 REVERT JUMPDEST CALLER PUSH1 0x0 SWAP1 DUP2 MSTORE PUSH1 0x20 DUP2 DUP2 MSTORE PUSH1 0x40 DUP1 DUP4 KECCAK256 DUP1 SLOAD PUSH1 0xFF NOT AND PUSH1 0x1 SWAP1 DUP2 OR SWAP1 SWAP2 SSTORE DUP5 DUP5 MSTORE SWAP1 SWAP2 MSTORE DUP2 KECCAK256 PUSH1 0x3 ADD DUP1 SLOAD SWAP2 PUSH2 0x374 DUP4 PUSH2 0x50C JUMP JUMPDEST SWAP2 SWAP1 POP SSTORE POP POP JUMP JUMPDEST PUSH1 0x0 PUSH1 0x20 DUP3 DUP5 SUB SLT ISZERO PUSH2 0x38E JUMPI PUSH1 0x0 DUP1 REVERT JUMPDEST POP CALLDATALOAD SWAP2 SWAP1 POP JUMP JUMPDEST PUSH1 0x0 DUP2 MLOAD DUP1 DUP5 MSTORE PUSH1 0x0 JUMPDEST DUP2 DUP2 LT ISZERO PUSH2 0x3BB JUMPI PUSH1 0x20 DUP2 DUP6 ADD DUP2 ADD MLOAD DUP7 DUP4 ADD DUP3 ADD MSTORE ADD PUSH2 0x39F JUMP JUMPDEST DUP2 DUP2 GT ISZERO PUSH2 0x3CD JUMPI PUSH1 0x0 PUSH1 0x20 DUP4 DUP8 ADD ADD MSTORE JUMPDEST POP PUSH1 0x1F ADD PUSH1 0x1F NOT AND SWAP3 SWAP1 SWAP3 ADD PUSH1 0x20 ADD SWAP3 SWAP2 POP POP JUMP JUMPDEST DUP5 DUP2 MSTORE PUSH1 0x80 PUSH1 0x20 DUP3 ADD MSTORE PUSH1 0x0 PUSH2 0x3FB PUSH1 0x80 DUP4 ADD DUP7 PUSH2 0x395 JUMP JUMPDEST DUP3 DUP2 SUB PUSH1 0x40 DUP5 ADD MSTORE PUSH2 0x40D DUP2 DUP7 PUSH2 0x395 JUMP JUMPDEST SWAP2 POP POP DUP3 PUSH1 0x60 DUP4 ADD MSTORE SWAP6 SWAP5 POP POP POP POP POP JUMP JUMPDEST PUSH1 0x20 DUP1 DUP3 MSTORE DUP3 MLOAD DUP3 DUP3 ADD DUP2 SWAP1 MSTORE PUSH1 0x0 SWAP2 SWAP1 DUP5 DUP3 ADD SWAP1 PUSH1 0x40 DUP6 ADD SWAP1 DUP5 JUMPDEST DUP2 DUP2 LT ISZERO PUSH2 0x457 JUMPI DUP4 MLOAD DUP4 MSTORE SWAP3 DUP5 ADD SWAP3 SWAP2 DUP5 ADD SWAP2 PUSH1 0x1 ADD PUSH2 0x43B JUMP JUMPDEST POP SWAP1 SWAP7 SWAP6 POP POP POP POP POP POP JUMP JUMPDEST PUSH1 0x0 PUSH1 0x20 DUP3 DUP5 SUB SLT ISZERO PUSH2 0x475 JUMPI PUSH1 0x0 DUP1 REVERT JUMPDEST DUP2 CALLDATALOAD PUSH1 0x1 PUSH1 0x1 PUSH1 0xA0 SHL SUB DUP2 AND DUP2 EQ PUSH2 0x48C JUMPI PUSH1 0x0 DUP1 REVERT JUMPDEST SWAP4 SWAP3 POP POP POP JUMP JUMPDEST PUSH1 0x1 DUP2 DUP2 SHR SWAP1 DUP3 AND DUP1 PUSH2 0x4A7 JUMPI PUSH1 0x7F DUP3 AND SWAP2 POP JUMPDEST PUSH1 0x20 DUP3 LT DUP2 EQ ISZERO PUSH2 0x301 JUMPI PUSH4 0x4E487B71 PUSH1 0xE0 SHL PUSH1 0x0 MSTORE PUSH1 0x22 PUSH1 0x4 MSTORE PUSH1 0x24 PUSH1 0x0 REVERT JUMPDEST PUSH4 0x4E487B71 PUSH1 0xE0 SHL PUSH1 0x0 MSTORE PUSH1 0x11 PUSH1 0x4 MSTORE PUSH1 0x24 PUSH1 0x0 REVERT JUMPDEST PUSH1 0x0 DUP3 NOT DUP3 GT ISZERO PUSH2 0x4F1 JUMPI PUSH2 0x4F1 PUSH2 0x4C8 JUMP JUMPDEST POP ADD SWAP1 JUMP JUMPDEST PUSH4 0x4E487B71 PUSH1 0xE0 SHL PUSH1 0x0 MSTORE PUSH1 0x32 PUSH1 0x4 MSTORE PUSH1 0x24 PUSH1 0x0 REVERT JUMPDEST PUSH1 0x0 PUSH1 0x0 NOT DUP3 EQ ISZERO PUSH2 0x520 JUMPI PUSH2 0x520 PUSH2 0x4C8 JUMP JUMPDEST POP PUSH1 0x1 ADD SWAP1 JUMP INVALID LOG2 PUSH5 0x6970667358 0x22 SLT KECCAK256 ISZERO 0x29 RETURNDATASIZE LOG4 PUSH13 0xBC48C09E23F82D36C50806D2E6 RETURNDATACOPY RETURN SWAP6 0xED ISZERO 0xC PUSH9 0x9EBFD6F35CCEE6473 PUSH16 0x6C634300080B00330000000000000000 ","sha1":"5742de0154b528a2ed686d7ac8652073bbb7c7e8","source":"// SPDX-License-Identifier: MIT\npragma solidity ^0.8.0;\n\ncontract Election {\n    //Candidate Structure\n    struct Candidate {\n        uint256 id;\n        string name;\n        string party;\n        uint256 vote_count;\n    }\n    //count voters\n    mapping(address => bool) public voters;\n    //Store candidates\n    mapping(uint256 => Candidate) public Candidates;\n    //count candidates\n    uint256 public Candidate_count;\n    // Returning Officer in real life\n    address public admin;\n\n    constructor() {\n        admin = msg.sender;\n        addCandidate(\"Devadas Aggarwal\", \"Bharatiya Janata Party\");\n        addCandidate(\"Pallav Pandit\", \"Indian National Congress\");\n        addCandidate(\"Harish Khurana\", \"Nationalist Congress Party\");\n        addCandidate(\"Sarita Dhaliwal\", \"Rashtriya Janata Dal\");\n        addCandidate(\"Jai Goyal\", \"Bahujan Samaj Party\");\n        addCandidate(\"NOTA\", \"None Of The Above\");\n    }\n\n    function addCandidate(string memory _name, string memory _party) private {\n        Candidate_count++;\n        Candidates[Candidate_count] = Candidate(\n            Candidate_count,\n            _name,\n            _party,\n            0\n        );\n    }\n\n    function Vote(uint256 _candidateId) public {\n        //require that voter hasn't voted before\n        require(!voters[msg.sender]);\n        //require valid candidate\n        require(_candidateId > 0 && _candidateId <= Candidate_count);\n        //record vote from voter\n        voters[msg.sender] = true;\n        //update candidate vote count\n        Candidates[_candidateId].vote_count++;\n    }\n\n    //for frontend\n    function viewvotes() public view returns (uint256[] memory) {\n        require(msg.sender == admin);\n        uint256[] memory ret = new uint256[](6);\n        for (uint256 i = 0; i <= 5; i++) {\n            ret[i] = Candidates[i + 1].vote_count;\n        }\n        return ret;\n    }\n}\n","sourcePath":"contracts/Election.sol","deployment":{"address":"0x7297ba3322bef025b7458F90DcE001861c12dDA2","chainid":"4","blockHeight":10733411}}