{"abi":[{"inputs":[],"stateMutability":"nonpayable","type":"constructor","name":"constructor"},{"inputs":[],"name":"Candidate_count","outputs":[{"internalType":"uint256","name":"","type":"uint256"}],"stateMutability":"view","type":"function"},{"inputs":[{"internalType":"uint256","name":"","type":"uint256"}],"name":"Candidates","outputs":[{"internalType":"uint256","name":"id","type":"uint256"},{"internalType":"string","name":"name","type":"string"},{"internalType":"string","name":"party","type":"string"},{"internalType":"uint256","name":"vote_count","type":"uint256"}],"stateMutability":"view","type":"function"},{"inputs":[{"internalType":"uint256","name":"_candidateId","type":"uint256"}],"name":"Vote","outputs":[],"stateMutability":"nonpayable","type":"function"},{"inputs":[],"name":"admin","outputs":[{"internalType":"address","name":"","type":"address"}],"stateMutability":"view","type":"function"},{"inputs":[],"name":"viewadmin","outputs":[{"internalType":"address","name":"","type":"address"}],"stateMutability":"view","type":"function"},{"inputs":[],"name":"viewvotes","outputs":[{"internalType":"uint256[]","name":"","type":"uint256[]"}],"stateMutability":"view","type":"function"},{"inputs":[{"internalType":"address","name":"","type":"address"}],"name":"voters","outputs":[{"internalType":"bool","name":"","type":"bool"}],"stateMutability":"view","type":"function"}],"bytecode":"608060405234801561001057600080fd5b50600380546001600160a01b03191633179055604080518082018252601081526f11195d9859185cc81059d9d85c9dd85b60821b6020808301919091528251808401909352601683527f426861726174697961204a616e617461205061727479000000000000000000009083015261008791610288565b6100f16040518060400160405280600d81526020016c14185b1b185d8814185b991a5d609a1b8152506040518060400160405280601881526020017f496e6469616e204e6174696f6e616c20436f6e6772657373000000000000000081525061028860201b60201c565b61015c6040518060400160405280600e81526020016d486172697368204b687572616e6160901b8152506040518060400160405280601a81526020017f4e6174696f6e616c69737420436f6e677265737320506172747900000000000081525061028860201b60201c565b6101c86040518060400160405280600f81526020016e14d85c9a5d1848111a185b1a5dd85b608a1b8152506040518060400160405280601481526020017f526173687472697961204a616e6174612044616c00000000000000000000000081525061028860201b60201c565b61022e6040518060400160405280600981526020016812985a4811dbde585b60ba1b8152506040518060400160405280601381526020017f426168756a616e2053616d616a2050617274790000000000000000000000000081525061028860201b60201c565b610283604051806040016040528060048152602001634e4f544160e01b815250604051806040016040528060118152602001704e6f6e65204f66205468652041626f766560781b81525061028860201b60201c565b610418565b60028054906000610298836103b4565b90915550506040805160808101825260025480825260208083018681528385018690526000606085018190529283526001808352949092208351815591518051939492936102ed93850192919091019061031b565b506040820151805161030991600284019160209091019061031b565b50606082015181600301559050505050565b828054610327906103dd565b90600052602060002090601f016020900481019282610349576000855561038f565b82601f1061036257805160ff191683800117855561038f565b8280016001018555821561038f579182015b8281111561038f578251825591602001919060010190610374565b5061039b92915061039f565b5090565b5b8082111561039b57600081556001016103a0565b60006000198214156103d657634e487b7160e01b600052601160045260246000fd5b5060010190565b600181811c908216806103f157607f821691505b6020821081141561041257634e487b7160e01b600052602260045260246000fd5b50919050565b610573806104276000396000f3fe608060405234801561001057600080fd5b506004361061007d5760003560e01c8063a3ec138d1161005b578063a3ec138d146100da578063dcd6a5cd1461010d578063f851a44014610122578063ffb1894c1461014d57600080fd5b8063290e9212146100825780634c726554146100ae57806391b94a7e146100c5575b600080fd5b610095610090366004610392565b61015e565b6040516100a594939291906103f8565b60405180910390f35b6100b760025481565b6040519081526020016100a5565b6100cd610296565b6040516100a59190610435565b6100fd6100e8366004610479565b60006020819052908152604090205460ff1681565b60405190151581526020016100a5565b61012061011b366004610392565b61031d565b005b600354610135906001600160a01b031681565b6040516001600160a01b0390911681526020016100a5565b6003546001600160a01b0316610135565b60016020819052600091825260409091208054918101805461017f906104a9565b80601f01602080910402602001604051908101604052809291908181526020018280546101ab906104a9565b80156101f85780601f106101cd576101008083540402835291602001916101f8565b820191906000526020600020905b8154815290600101906020018083116101db57829003601f168201915b50505050509080600201805461020d906104a9565b80601f0160208091040260200160405190810160405280929190818152602001828054610239906104a9565b80156102865780601f1061025b57610100808354040283529160200191610286565b820191906000526020600020905b81548152906001019060200180831161026957829003601f168201915b5050505050908060030154905084565b60408051600680825260e08201909252606091600091906020820160c08036833701905050905060005b6005811161031757600160006102d683836104f4565b8152602001908152602001600020600301548282815181106102fa576102fa61050c565b60209081029190910101528061030f81610522565b9150506102c0565b50919050565b3360009081526020819052604090205460ff161561033a57600080fd5b60008111801561034c57506002548111155b61035557600080fd5b33600090815260208181526040808320805460ff19166001908117909155848452909152812060030180549161038a83610522565b919050555050565b6000602082840312156103a457600080fd5b5035919050565b6000815180845260005b818110156103d1576020818501810151868301820152016103b5565b818111156103e3576000602083870101525b50601f01601f19169290920160200192915050565b84815260806020820152600061041160808301866103ab565b828103604084015261042381866103ab565b91505082606083015295945050505050565b6020808252825182820181905260009190848201906040850190845b8181101561046d57835183529284019291840191600101610451565b50909695505050505050565b60006020828403121561048b57600080fd5b81356001600160a01b03811681146104a257600080fd5b9392505050565b600181811c908216806104bd57607f821691505b6020821081141561031757634e487b7160e01b600052602260045260246000fd5b634e487b7160e01b600052601160045260246000fd5b60008219821115610507576105076104de565b500190565b634e487b7160e01b600052603260045260246000fd5b6000600019821415610536576105366104de565b506001019056fea26469706673582212207ee5109df2a4fc020ac47d00cb3ef81d0eb8bfc535b8384fe66de95ff00914e364736f6c634300080b0033","bytecodeSha1":"bc5f5d477d28b898de677dab149e4da599b8a53c","compiler":{"evm_version":"istanbul","optimizer":{"enabled":true,"runs":200},"version":"0.8.11+commit.d7f03943"},"contractName":"Election","language":"Solidity","natspec":{"kind":"dev","methods":{},"version":1},"opcodes":"PUSH1 0x80 PUSH1 0x40 MSTORE CALLVALUE DUP1 ISZERO PUSH2 0x10 JUMPI PUSH1 0x0 DUP1 REVERT JUMPDEST POP PUSH1 0x4 CALLDATASIZE LT PUSH2 0x7D JUMPI PUSH1 0x0 CALLDATALOAD PUSH1 0xE0 SHR DUP1 PUSH4 0xA3EC138D GT PUSH2 0x5B JUMPI DUP1 PUSH4 0xA3EC138D EQ PUSH2 0xDA JUMPI DUP1 PUSH4 0xDCD6A5CD EQ PUSH2 0x10D JUMPI DUP1 PUSH4 0xF851A440 EQ PUSH2 0x122 JUMPI DUP1 PUSH4 0xFFB1894C EQ PUSH2 0x14D JUMPI PUSH1 0x0 DUP1 REVERT JUMPDEST DUP1 PUSH4 0x290E9212 EQ PUSH2 0x82 JUMPI DUP1 PUSH4 0x4C726554 EQ PUSH2 0xAE JUMPI DUP1 PUSH4 0x91B94A7E EQ PUSH2 0xC5 JUMPI JUMPDEST PUSH1 0x0 DUP1 REVERT JUMPDEST PUSH2 0x95 PUSH2 0x90 CALLDATASIZE PUSH1 0x4 PUSH2 0x392 JUMP JUMPDEST PUSH2 0x15E JUMP JUMPDEST PUSH1 0x40 MLOAD PUSH2 0xA5 SWAP5 SWAP4 SWAP3 SWAP2 SWAP1 PUSH2 0x3F8 JUMP JUMPDEST PUSH1 0x40 MLOAD DUP1 SWAP2 SUB SWAP1 RETURN JUMPDEST PUSH2 0xB7 PUSH1 0x2 SLOAD DUP2 JUMP JUMPDEST PUSH1 0x40 MLOAD SWAP1 DUP2 MSTORE PUSH1 0x20 ADD PUSH2 0xA5 JUMP JUMPDEST PUSH2 0xCD PUSH2 0x296 JUMP JUMPDEST PUSH1 0x40 MLOAD PUSH2 0xA5 SWAP2 SWAP1 PUSH2 0x435 JUMP JUMPDEST PUSH2 0xFD PUSH2 0xE8 CALLDATASIZE PUSH1 0x4 PUSH2 0x479 JUMP JUMPDEST PUSH1 0x0 PUSH1 0x20 DUP2 SWAP1 MSTORE SWAP1 DUP2 MSTORE PUSH1 0x40 SWAP1 KECCAK256 SLOAD PUSH1 0xFF AND DUP2 JUMP JUMPDEST PUSH1 0x40 MLOAD SWAP1 ISZERO ISZERO DUP2 MSTORE PUSH1 0x20 ADD PUSH2 0xA5 JUMP JUMPDEST PUSH2 0x120 PUSH2 0x11B CALLDATASIZE PUSH1 0x4 PUSH2 0x392 JUMP JUMPDEST PUSH2 0x31D JUMP JUMPDEST STOP JUMPDEST PUSH1 0x3 SLOAD PUSH2 0x135 SWAP1 PUSH1 0x1 PUSH1 0x1 PUSH1 0xA0 SHL SUB AND DUP2 JUMP JUMPDEST PUSH1 0x40 MLOAD PUSH1 0x1 PUSH1 0x1 PUSH1 0xA0 SHL SUB SWAP1 SWAP2 AND DUP2 MSTORE PUSH1 0x20 ADD PUSH2 0xA5 JUMP JUMPDEST PUSH1 0x3 SLOAD PUSH1 0x1 PUSH1 0x1 PUSH1 0xA0 SHL SUB AND PUSH2 0x135 JUMP JUMPDEST PUSH1 0x1 PUSH1 0x20 DUP2 SWAP1 MSTORE PUSH1 0x0 SWAP2 DUP3 MSTORE PUSH1 0x40 SWAP1 SWAP2 KECCAK256 DUP1 SLOAD SWAP2 DUP2 ADD DUP1 SLOAD PUSH2 0x17F SWAP1 PUSH2 0x4A9 JUMP JUMPDEST DUP1 PUSH1 0x1F ADD PUSH1 0x20 DUP1 SWAP2 DIV MUL PUSH1 0x20 ADD PUSH1 0x40 MLOAD SWAP1 DUP2 ADD PUSH1 0x40 MSTORE DUP1 SWAP3 SWAP2 SWAP1 DUP2 DUP2 MSTORE PUSH1 0x20 ADD DUP3 DUP1 SLOAD PUSH2 0x1AB SWAP1 PUSH2 0x4A9 JUMP JUMPDEST DUP1 ISZERO PUSH2 0x1F8 JUMPI DUP1 PUSH1 0x1F LT PUSH2 0x1CD JUMPI PUSH2 0x100 DUP1 DUP4 SLOAD DIV MUL DUP4 MSTORE SWAP2 PUSH1 0x20 ADD SWAP2 PUSH2 0x1F8 JUMP JUMPDEST DUP3 ADD SWAP2 SWAP1 PUSH1 0x0 MSTORE PUSH1 0x20 PUSH1 0x0 KECCAK256 SWAP1 JUMPDEST DUP2 SLOAD DUP2 MSTORE SWAP1 PUSH1 0x1 ADD SWAP1 PUSH1 0x20 ADD DUP1 DUP4 GT PUSH2 0x1DB JUMPI DUP3 SWAP1 SUB PUSH1 0x1F AND DUP3 ADD SWAP2 JUMPDEST POP POP POP POP POP SWAP1 DUP1 PUSH1 0x2 ADD DUP1 SLOAD PUSH2 0x20D SWAP1 PUSH2 0x4A9 JUMP JUMPDEST DUP1 PUSH1 0x1F ADD PUSH1 0x20 DUP1 SWAP2 DIV MUL PUSH1 0x20 ADD PUSH1 0x40 MLOAD SWAP1 DUP2 ADD PUSH1 0x40 MSTORE DUP1 SWAP3 SWAP2 SWAP1 DUP2 DUP2 MSTORE PUSH1 0x20 ADD DUP3 DUP1 SLOAD PUSH2 0x239 SWAP1 PUSH2 0x4A9 JUMP JUMPDEST DUP1 ISZERO PUSH2 0x286 JUMPI DUP1 PUSH1 0x1F LT PUSH2 0x25B JUMPI PUSH2 0x100 DUP1 DUP4 SLOAD DIV MUL DUP4 MSTORE SWAP2 PUSH1 0x20 ADD SWAP2 PUSH2 0x286 JUMP JUMPDEST DUP3 ADD SWAP2 SWAP1 PUSH1 0x0 MSTORE PUSH1 0x20 PUSH1 0x0 KECCAK256 SWAP1 JUMPDEST DUP2 SLOAD DUP2 MSTORE SWAP1 PUSH1 0x1 ADD SWAP1 PUSH1 0x20 ADD DUP1 DUP4 GT PUSH2 0x269 JUMPI DUP3 SWAP1 SUB PUSH1 0x1F AND DUP3 ADD SWAP2 JUMPDEST POP POP POP POP POP SWAP1 DUP1 PUSH1 0x3 ADD SLOAD SWAP1 POP DUP5 JUMP JUMPDEST PUSH1 0x40 DUP1 MLOAD PUSH1 0x6 DUP1 DUP3 MSTORE PUSH1 0xE0 DUP3 ADD SWAP1 SWAP3 MSTORE PUSH1 0x60 SWAP2 PUSH1 0x0 SWAP2 SWAP1 PUSH1 0x20 DUP3 ADD PUSH1 0xC0 DUP1 CALLDATASIZE DUP4 CALLDATACOPY ADD SWAP1 POP POP SWAP1 POP PUSH1 0x0 JUMPDEST PUSH1 0x5 DUP2 GT PUSH2 0x317 JUMPI PUSH1 0x1 PUSH1 0x0 PUSH2 0x2D6 DUP4 DUP4 PUSH2 0x4F4 JUMP JUMPDEST DUP2 MSTORE PUSH1 0x20 ADD SWAP1 DUP2 MSTORE PUSH1 0x20 ADD PUSH1 0x0 KECCAK256 PUSH1 0x3 ADD SLOAD DUP3 DUP3 DUP2 MLOAD DUP2 LT PUSH2 0x2FA JUMPI PUSH2 0x2FA PUSH2 0x50C JUMP JUMPDEST PUSH1 0x20 SWAP1 DUP2 MUL SWAP2 SWAP1 SWAP2 ADD ADD MSTORE DUP1 PUSH2 0x30F DUP2 PUSH2 0x522 JUMP JUMPDEST SWAP2 POP POP PUSH2 0x2C0 JUMP JUMPDEST POP SWAP2 SWAP1 POP JUMP JUMPDEST CALLER PUSH1 0x0 SWAP1 DUP2 MSTORE PUSH1 0x20 DUP2 SWAP1 MSTORE PUSH1 0x40 SWAP1 KECCAK256 SLOAD PUSH1 0xFF AND ISZERO PUSH2 0x33A JUMPI PUSH1 0x0 DUP1 REVERT JUMPDEST PUSH1 0x0 DUP2 GT DUP1 ISZERO PUSH2 0x34C JUMPI POP PUSH1 0x2 SLOAD DUP2 GT ISZERO JUMPDEST PUSH2 0x355 JUMPI PUSH1 0x0 DUP1 REVERT JUMPDEST CALLER PUSH1 0x0 SWAP1 DUP2 MSTORE PUSH1 0x20 DUP2 DUP2 MSTORE PUSH1 0x40 DUP1 DUP4 KECCAK256 DUP1 SLOAD PUSH1 0xFF NOT AND PUSH1 0x1 SWAP1 DUP2 OR SWAP1 SWAP2 SSTORE DUP5 DUP5 MSTORE SWAP1 SWAP2 MSTORE DUP2 KECCAK256 PUSH1 0x3 ADD DUP1 SLOAD SWAP2 PUSH2 0x38A DUP4 PUSH2 0x522 JUMP JUMPDEST SWAP2 SWAP1 POP SSTORE POP POP JUMP JUMPDEST PUSH1 0x0 PUSH1 0x20 DUP3 DUP5 SUB SLT ISZERO PUSH2 0x3A4 JUMPI PUSH1 0x0 DUP1 REVERT JUMPDEST POP CALLDATALOAD SWAP2 SWAP1 POP JUMP JUMPDEST PUSH1 0x0 DUP2 MLOAD DUP1 DUP5 MSTORE PUSH1 0x0 JUMPDEST DUP2 DUP2 LT ISZERO PUSH2 0x3D1 JUMPI PUSH1 0x20 DUP2 DUP6 ADD DUP2 ADD MLOAD DUP7 DUP4 ADD DUP3 ADD MSTORE ADD PUSH2 0x3B5 JUMP JUMPDEST DUP2 DUP2 GT ISZERO PUSH2 0x3E3 JUMPI PUSH1 0x0 PUSH1 0x20 DUP4 DUP8 ADD ADD MSTORE JUMPDEST POP PUSH1 0x1F ADD PUSH1 0x1F NOT AND SWAP3 SWAP1 SWAP3 ADD PUSH1 0x20 ADD SWAP3 SWAP2 POP POP JUMP JUMPDEST DUP5 DUP2 MSTORE PUSH1 0x80 PUSH1 0x20 DUP3 ADD MSTORE PUSH1 0x0 PUSH2 0x411 PUSH1 0x80 DUP4 ADD DUP7 PUSH2 0x3AB JUMP JUMPDEST DUP3 DUP2 SUB PUSH1 0x40 DUP5 ADD MSTORE PUSH2 0x423 DUP2 DUP7 PUSH2 0x3AB JUMP JUMPDEST SWAP2 POP POP DUP3 PUSH1 0x60 DUP4 ADD MSTORE SWAP6 SWAP5 POP POP POP POP POP JUMP JUMPDEST PUSH1 0x20 DUP1 DUP3 MSTORE DUP3 MLOAD DUP3 DUP3 ADD DUP2 SWAP1 MSTORE PUSH1 0x0 SWAP2 SWAP1 DUP5 DUP3 ADD SWAP1 PUSH1 0x40 DUP6 ADD SWAP1 DUP5 JUMPDEST DUP2 DUP2 LT ISZERO PUSH2 0x46D JUMPI DUP4 MLOAD DUP4 MSTORE SWAP3 DUP5 ADD SWAP3 SWAP2 DUP5 ADD SWAP2 PUSH1 0x1 ADD PUSH2 0x451 JUMP JUMPDEST POP SWAP1 SWAP7 SWAP6 POP POP POP POP POP POP JUMP JUMPDEST PUSH1 0x0 PUSH1 0x20 DUP3 DUP5 SUB SLT ISZERO PUSH2 0x48B JUMPI PUSH1 0x0 DUP1 REVERT JUMPDEST DUP2 CALLDATALOAD PUSH1 0x1 PUSH1 0x1 PUSH1 0xA0 SHL SUB DUP2 AND DUP2 EQ PUSH2 0x4A2 JUMPI PUSH1 0x0 DUP1 REVERT JUMPDEST SWAP4 SWAP3 POP POP POP JUMP JUMPDEST PUSH1 0x1 DUP2 DUP2 SHR SWAP1 DUP3 AND DUP1 PUSH2 0x4BD JUMPI PUSH1 0x7F DUP3 AND SWAP2 POP JUMPDEST PUSH1 0x20 DUP3 LT DUP2 EQ ISZERO PUSH2 0x317 JUMPI PUSH4 0x4E487B71 PUSH1 0xE0 SHL PUSH1 0x0 MSTORE PUSH1 0x22 PUSH1 0x4 MSTORE PUSH1 0x24 PUSH1 0x0 REVERT JUMPDEST PUSH4 0x4E487B71 PUSH1 0xE0 SHL PUSH1 0x0 MSTORE PUSH1 0x11 PUSH1 0x4 MSTORE PUSH1 0x24 PUSH1 0x0 REVERT JUMPDEST PUSH1 0x0 DUP3 NOT DUP3 GT ISZERO PUSH2 0x507 JUMPI PUSH2 0x507 PUSH2 0x4DE JUMP JUMPDEST POP ADD SWAP1 JUMP JUMPDEST PUSH4 0x4E487B71 PUSH1 0xE0 SHL PUSH1 0x0 MSTORE PUSH1 0x32 PUSH1 0x4 MSTORE PUSH1 0x24 PUSH1 0x0 REVERT JUMPDEST PUSH1 0x0 PUSH1 0x0 NOT DUP3 EQ ISZERO PUSH2 0x536 JUMPI PUSH2 0x536 PUSH2 0x4DE JUMP JUMPDEST POP PUSH1 0x1 ADD SWAP1 JUMP INVALID LOG2 PUSH5 0x6970667358 0x22 SLT KECCAK256 PUSH31 0xE5109DF2A4FC020AC47D00CB3EF81D0EB8BFC535B8384FE66DE95FF00914E3 PUSH5 0x736F6C6343 STOP ADDMOD SIGNEXTEND STOP CALLER ","sha1":"50e808a63219cc18049c2f7b4c943065497ae341","source":"// SPDX-License-Identifier: MIT\npragma solidity ^0.8.0;\n\ncontract Election {\n    //Candidate Structure\n    struct Candidate {\n        uint256 id;\n        string name;\n        string party;\n        uint256 vote_count;\n    }\n    //count voters\n    mapping(address => bool) public voters;\n    //Store candidates\n    mapping(uint256 => Candidate) public Candidates;\n    //count candidates\n    uint256 public Candidate_count;\n    // Returning Officer in real life\n    address public admin;\n\n    constructor() {\n        admin = msg.sender;\n        addCandidate(\"Devadas Aggarwal\", \"Bharatiya Janata Party\");\n        addCandidate(\"Pallav Pandit\", \"Indian National Congress\");\n        addCandidate(\"Harish Khurana\", \"Nationalist Congress Party\");\n        addCandidate(\"Sarita Dhaliwal\", \"Rashtriya Janata Dal\");\n        addCandidate(\"Jai Goyal\", \"Bahujan Samaj Party\");\n        addCandidate(\"NOTA\", \"None Of The Above\");\n    }\n\n    function addCandidate(string memory _name, string memory _party) private {\n        Candidate_count++;\n        Candidates[Candidate_count] = Candidate(\n            Candidate_count,\n            _name,\n            _party,\n            0\n        );\n    }\n\n    function Vote(uint256 _candidateId) public {\n        //require that voter hasn't voted before\n        require(!voters[msg.sender]);\n        //require valid candidate\n        require(_candidateId > 0 && _candidateId <= Candidate_count);\n        //record vote from voter\n        voters[msg.sender] = true;\n        //update candidate vote count\n        Candidates[_candidateId].vote_count++;\n    }\n\n    function viewadmin() public view returns (address) {\n        return admin;\n    }\n\n    //for frontend\n    function viewvotes() public view returns (uint256[] memory) {\n        \n        uint256[] memory ret = new uint256[](6);\n        for (uint256 i = 0; i <= 5; i++) {\n            ret[i] = Candidates[i + 1].vote_count;\n        }\n        return ret;\n    }\n}\n","sourcePath":"contracts/Election.sol","type":"contract","deployment":{"address":"0xC2f08980Cf406284B9E105Cc5a49C0309C20b26d","chainid":"4","blockHeight":10707045}}